{
  "_format": "hh-sol-artifact-1",
  "contractName": "Raffle",
  "sourceName": "contracts/Raffle.sol",
  "abi": [
    {
      "inputs": [
        {
          "internalType": "address",
          "name": "vrfCoordinatorV2",
          "type": "address"
        },
        {
          "internalType": "uint256",
          "name": "entranceFee",
          "type": "uint256"
        },
        {
          "internalType": "bytes32",
          "name": "gasLane",
          "type": "bytes32"
        },
        {
          "internalType": "uint64",
          "name": "subscriptionId",
          "type": "uint64"
        },
        {
          "internalType": "uint32",
          "name": "callbackGasLimit",
          "type": "uint32"
        },
        {
          "internalType": "uint256",
          "name": "interval",
          "type": "uint256"
        }
      ],
      "stateMutability": "nonpayable",
      "type": "constructor"
    },
    {
      "inputs": [
        {
          "internalType": "address",
          "name": "have",
          "type": "address"
        },
        {
          "internalType": "address",
          "name": "want",
          "type": "address"
        }
      ],
      "name": "OnlyCoordinatorCanFulfill",
      "type": "error"
    },
    {
      "inputs": [],
      "name": "Raffle__NotEnoughETHEntered",
      "type": "error"
    },
    {
      "inputs": [],
      "name": "Raffle__NotOpen",
      "type": "error"
    },
    {
      "inputs": [],
      "name": "Raffle__TransferFailed",
      "type": "error"
    },
    {
      "inputs": [
        {
          "internalType": "uint256",
          "name": "currentBalance",
          "type": "uint256"
        },
        {
          "internalType": "uint256",
          "name": "numPlayers",
          "type": "uint256"
        },
        {
          "internalType": "uint256",
          "name": "raffleState",
          "type": "uint256"
        }
      ],
      "name": "Raffle__UpkeepNotNeeded",
      "type": "error"
    },
    {
      "anonymous": false,
      "inputs": [
        {
          "indexed": true,
          "internalType": "address",
          "name": "player",
          "type": "address"
        }
      ],
      "name": "RaffleEnter",
      "type": "event"
    },
    {
      "anonymous": false,
      "inputs": [
        {
          "indexed": true,
          "internalType": "uint256",
          "name": "requestId",
          "type": "uint256"
        }
      ],
      "name": "RequestedRaffleWinner",
      "type": "event"
    },
    {
      "anonymous": false,
      "inputs": [
        {
          "indexed": true,
          "internalType": "address",
          "name": "winner",
          "type": "address"
        }
      ],
      "name": "WinnerPicked",
      "type": "event"
    },
    {
      "inputs": [
        {
          "internalType": "bytes",
          "name": "",
          "type": "bytes"
        }
      ],
      "name": "checkUpkeep",
      "outputs": [
        {
          "internalType": "bool",
          "name": "upkeepNeeded",
          "type": "bool"
        },
        {
          "internalType": "bytes",
          "name": "",
          "type": "bytes"
        }
      ],
      "stateMutability": "nonpayable",
      "type": "function"
    },
    {
      "inputs": [],
      "name": "enterRaffle",
      "outputs": [],
      "stateMutability": "payable",
      "type": "function"
    },
    {
      "inputs": [],
      "name": "getEntranceFee",
      "outputs": [
        {
          "internalType": "uint256",
          "name": "",
          "type": "uint256"
        }
      ],
      "stateMutability": "view",
      "type": "function"
    },
    {
      "inputs": [],
      "name": "getInterval",
      "outputs": [
        {
          "internalType": "uint256",
          "name": "",
          "type": "uint256"
        }
      ],
      "stateMutability": "view",
      "type": "function"
    },
    {
      "inputs": [],
      "name": "getLatestTimeStamp",
      "outputs": [
        {
          "internalType": "uint256",
          "name": "",
          "type": "uint256"
        }
      ],
      "stateMutability": "view",
      "type": "function"
    },
    {
      "inputs": [],
      "name": "getNumWords",
      "outputs": [
        {
          "internalType": "uint256",
          "name": "",
          "type": "uint256"
        }
      ],
      "stateMutability": "pure",
      "type": "function"
    },
    {
      "inputs": [],
      "name": "getNumberOfPlayers",
      "outputs": [
        {
          "internalType": "uint256",
          "name": "",
          "type": "uint256"
        }
      ],
      "stateMutability": "view",
      "type": "function"
    },
    {
      "inputs": [
        {
          "internalType": "uint256",
          "name": "index",
          "type": "uint256"
        }
      ],
      "name": "getPlayer",
      "outputs": [
        {
          "internalType": "address",
          "name": "",
          "type": "address"
        }
      ],
      "stateMutability": "view",
      "type": "function"
    },
    {
      "inputs": [],
      "name": "getRaffleState",
      "outputs": [
        {
          "internalType": "enum Raffle.RaffleState",
          "name": "",
          "type": "uint8"
        }
      ],
      "stateMutability": "view",
      "type": "function"
    },
    {
      "inputs": [],
      "name": "getRecentWinner",
      "outputs": [
        {
          "internalType": "address",
          "name": "",
          "type": "address"
        }
      ],
      "stateMutability": "view",
      "type": "function"
    },
    {
      "inputs": [],
      "name": "getRequestConfirmations",
      "outputs": [
        {
          "internalType": "uint256",
          "name": "",
          "type": "uint256"
        }
      ],
      "stateMutability": "pure",
      "type": "function"
    },
    {
      "inputs": [
        {
          "internalType": "bytes",
          "name": "",
          "type": "bytes"
        }
      ],
      "name": "performUpkeep",
      "outputs": [],
      "stateMutability": "nonpayable",
      "type": "function"
    },
    {
      "inputs": [
        {
          "internalType": "uint256",
          "name": "requestId",
          "type": "uint256"
        },
        {
          "internalType": "uint256[]",
          "name": "randomWords",
          "type": "uint256[]"
        }
      ],
      "name": "rawFulfillRandomWords",
      "outputs": [],
      "stateMutability": "nonpayable",
      "type": "function"
    }
  ],
  "bytecode": "0x6101606040523480156200001257600080fd5b5060405162001885380380620018858339818101604052810190620000389190620001ad565b858073ffffffffffffffffffffffffffffffffffffffff1660808173ffffffffffffffffffffffffffffffffffffffff1660601b81525050508460a081815250508573ffffffffffffffffffffffffffffffffffffffff1660c08173ffffffffffffffffffffffffffffffffffffffff1660601b815250508360e081815250508267ffffffffffffffff166101008167ffffffffffffffff1660c01b815250508163ffffffff166101208163ffffffff1660e01b815250506000600160146101000a81548160ff02191690836001811115620001195762000118620002b5565b5b0217905550426002819055508061014081815250505050505050506200036b565b6000815190506200014b81620002e9565b92915050565b600081519050620001628162000303565b92915050565b60008151905062000179816200031d565b92915050565b600081519050620001908162000337565b92915050565b600081519050620001a78162000351565b92915050565b60008060008060008060c08789031215620001cd57620001cc620002e4565b5b6000620001dd89828a016200013a565b9650506020620001f089828a0162000168565b95505060406200020389828a0162000151565b94505060606200021689828a0162000196565b93505060806200022989828a016200017f565b92505060a06200023c89828a0162000168565b9150509295509295509295565b6000620002568262000267565b9050919050565b6000819050919050565b600073ffffffffffffffffffffffffffffffffffffffff82169050919050565b6000819050919050565b600063ffffffff82169050919050565b600067ffffffffffffffff82169050919050565b7f4e487b7100000000000000000000000000000000000000000000000000000000600052602160045260246000fd5b600080fd5b620002f48162000249565b81146200030057600080fd5b50565b6200030e816200025d565b81146200031a57600080fd5b50565b620003288162000287565b81146200033457600080fd5b50565b620003428162000291565b81146200034e57600080fd5b50565b6200035c81620002a1565b81146200036857600080fd5b50565b60805160601c60a05160c05160601c60e0516101005160c01c6101205160e01c6101405161149e620003e76000396000818161081c015261088a015260006106cb015260006106a8015260006106870152600061064b0152600081816102fa01526103f7015260008181610337015261038b015261149e6000f3fe6080604052600436106100c25760003560e01c8063473f1ddc1161007f5780636e04ff0d116100595780636e04ff0d1461022557806391ad27b414610263578063e55ae4e81461028e578063fd6673f5146102cb576100c2565b8063473f1ddc146101a457806353a2c19a146101cf5780635f1b0fd8146101fa576100c2565b806309bc33a7146100c7578063115cbaf5146100f25780631fe543e31461011d5780632cfcc53914610146578063320229eb146101505780634585e33b1461017b575b600080fd5b3480156100d357600080fd5b506100dc6102f6565b6040516100e9919061107e565b60405180910390f35b3480156100fe57600080fd5b5061010761031e565b6040516101149190611063565b60405180910390f35b34801561012957600080fd5b50610144600480360381019061013f9190610e57565b610335565b005b61014e6103f5565b005b34801561015c57600080fd5b50610165610564565b604051610172919061107e565b60405180910390f35b34801561018757600080fd5b506101a2600480360381019061019d9190610d67565b61056e565b005b3480156101b057600080fd5b506101b9610793565b6040516101c69190610f9c565b60405180910390f35b3480156101db57600080fd5b506101e46107bd565b6040516101f1919061107e565b60405180910390f35b34801561020657600080fd5b5061020f6107cc565b60405161021c919061107e565b60405180910390f35b34801561023157600080fd5b5061024c60048036038101906102479190610db4565b6107d9565b60405161025a929190610fe0565b60405180910390f35b34801561026f57600080fd5b50610278610886565b604051610285919061107e565b60405180910390f35b34801561029a57600080fd5b506102b560048036038101906102b09190610dfd565b6108ae565b6040516102c29190610f9c565b60405180910390f35b3480156102d757600080fd5b506102e06108f5565b6040516102ed919061107e565b60405180910390f35b60007f0000000000000000000000000000000000000000000000000000000000000000905090565b6000600160149054906101000a900460ff16905090565b7f000000000000000000000000000000000000000000000000000000000000000073ffffffffffffffffffffffffffffffffffffffff163373ffffffffffffffffffffffffffffffffffffffff16146103e757337f00000000000000000000000000000000000000000000000000000000000000006040517f1cf993f40000000000000000000000000000000000000000000000000000000081526004016103de929190610fb7565b60405180910390fd5b6103f18282610901565b5050565b7f000000000000000000000000000000000000000000000000000000000000000034101561044f576040517fbd4e069500000000000000000000000000000000000000000000000000000000815260040160405180910390fd5b6000600181111561046357610462611358565b5b600160149054906101000a900460ff16600181111561048557610484611358565b5b146104bc576040517f1425571c00000000000000000000000000000000000000000000000000000000815260040160405180910390fd5b6000339080600181540180825580915050600190039060005260206000200160009091909190916101000a81548173ffffffffffffffffffffffffffffffffffffffff021916908373ffffffffffffffffffffffffffffffffffffffff1602179055503373ffffffffffffffffffffffffffffffffffffffff167f0805e1d667bddb8a95f0f09880cf94f403fb596ce79928d9f29b74203ba284d460405160405180910390a2565b6000600254905090565b60006105ae6040518060400160405280600281526020017f30780000000000000000000000000000000000000000000000000000000000008152506107d9565b5090508061061d5747600080549050600160149054906101000a900460ff1660018111156105df576105de611358565b5b6040517f584327aa00000000000000000000000000000000000000000000000000000000815260040161061493929190611099565b60405180910390fd5b60018060146101000a81548160ff0219169083600181111561064257610641611358565b5b021790555060007f000000000000000000000000000000000000000000000000000000000000000073ffffffffffffffffffffffffffffffffffffffff16635d3b1d307f00000000000000000000000000000000000000000000000000000000000000007f000000000000000000000000000000000000000000000000000000000000000060037f000000000000000000000000000000000000000000000000000000000000000060016040518663ffffffff1660e01b815260040161070c959493929190611010565b602060405180830381600087803b15801561072657600080fd5b505af115801561073a573d6000803e3d6000fd5b505050506040513d601f19601f8201168201806040525081019061075e9190610e2a565b9050807fcd6e45c8998311cab7e9d4385596cac867e20a0587194b954fa3a731c93ce78b60405160405180910390a250505050565b6000600160009054906101000a900473ffffffffffffffffffffffffffffffffffffffff16905090565b6000600163ffffffff16905090565b6000600361ffff16905090565b600060606000600160149054906101000a900460ff16600181111561080157610800611358565b5b6000600181111561081557610814611358565b5b14905060007f0000000000000000000000000000000000000000000000000000000000000000600254426108499190611179565b119050600080600080549050119050600080471190508380156108695750825b80156108725750815b801561087b5750805b955050505050915091565b60007f0000000000000000000000000000000000000000000000000000000000000000905090565b60008082815481106108c3576108c2611387565b5b9060005260206000200160009054906101000a900473ffffffffffffffffffffffffffffffffffffffff169050919050565b60008080549050905090565b600080805490508260008151811061091c5761091b611387565b5b602002602001015161092e91906112c9565b9050600080828154811061094557610944611387565b5b9060005260206000200160009054906101000a900473ffffffffffffffffffffffffffffffffffffffff16905080600160006101000a81548173ffffffffffffffffffffffffffffffffffffffff021916908373ffffffffffffffffffffffffffffffffffffffff1602179055506000600160146101000a81548160ff021916908360018111156109d9576109d8611358565b5b0217905550600067ffffffffffffffff8111156109f9576109f86113b6565b5b604051908082528060200260200182016040528015610a275781602001602082028036833780820191505090505b5060009080519060200190610a3d929190610b32565b504260028190555060008173ffffffffffffffffffffffffffffffffffffffff1647604051610a6b90610f87565b60006040518083038185875af1925050503d8060008114610aa8576040519150601f19603f3d011682016040523d82523d6000602084013e610aad565b606091505b5050905080610ae8576040517fa1d04b3900000000000000000000000000000000000000000000000000000000815260040160405180910390fd5b8173ffffffffffffffffffffffffffffffffffffffff167f5b690ec4a06fe979403046eaeea5b3ce38524683c3001f662c8b5a829632f7df60405160405180910390a25050505050565b828054828255906000526020600020908101928215610bab579160200282015b82811115610baa5782518260006101000a81548173ffffffffffffffffffffffffffffffffffffffff021916908373ffffffffffffffffffffffffffffffffffffffff16021790555091602001919060010190610b52565b5b509050610bb89190610bbc565b5090565b5b80821115610bd5576000816000905550600101610bbd565b5090565b6000610bec610be7846110f5565b6110d0565b90508083825260208201905082856020860282011115610c0f57610c0e6113ef565b5b60005b85811015610c3f5781610c258882610d3d565b845260208401935060208301925050600181019050610c12565b5050509392505050565b6000610c5c610c5784611121565b6110d0565b905082815260208101848484011115610c7857610c776113f4565b5b610c83848285611256565b509392505050565b600082601f830112610ca057610c9f6113ea565b5b8135610cb0848260208601610bd9565b91505092915050565b60008083601f840112610ccf57610cce6113ea565b5b8235905067ffffffffffffffff811115610cec57610ceb6113e5565b5b602083019150836001820283011115610d0857610d076113ef565b5b9250929050565b600082601f830112610d2457610d236113ea565b5b8135610d34848260208601610c49565b91505092915050565b600081359050610d4c81611451565b92915050565b600081519050610d6181611451565b92915050565b60008060208385031215610d7e57610d7d6113fe565b5b600083013567ffffffffffffffff811115610d9c57610d9b6113f9565b5b610da885828601610cb9565b92509250509250929050565b600060208284031215610dca57610dc96113fe565b5b600082013567ffffffffffffffff811115610de857610de76113f9565b5b610df484828501610d0f565b91505092915050565b600060208284031215610e1357610e126113fe565b5b6000610e2184828501610d3d565b91505092915050565b600060208284031215610e4057610e3f6113fe565b5b6000610e4e84828501610d52565b91505092915050565b60008060408385031215610e6e57610e6d6113fe565b5b6000610e7c85828601610d3d565b925050602083013567ffffffffffffffff811115610e9d57610e9c6113f9565b5b610ea985828601610c8b565b9150509250929050565b610ebc816111ad565b82525050565b610ecb816111bf565b82525050565b610eda816111cb565b82525050565b6000610eeb82611152565b610ef5818561115d565b9350610f05818560208601611265565b610f0e81611403565b840191505092915050565b610f2281611244565b82525050565b6000610f3560028361116e565b9150610f4082611414565b600282019050919050565b610f54816111e8565b82525050565b610f6381611216565b82525050565b610f7281611220565b82525050565b610f8181611230565b82525050565b6000610f9282610f28565b9150819050919050565b6000602082019050610fb16000830184610eb3565b92915050565b6000604082019050610fcc6000830185610eb3565b610fd96020830184610eb3565b9392505050565b6000604082019050610ff56000830185610ec2565b81810360208301526110078184610ee0565b90509392505050565b600060a0820190506110256000830188610ed1565b6110326020830187610f78565b61103f6040830186610f4b565b61104c6060830185610f69565b6110596080830184610f69565b9695505050505050565b60006020820190506110786000830184610f19565b92915050565b60006020820190506110936000830184610f5a565b92915050565b60006060820190506110ae6000830186610f5a565b6110bb6020830185610f5a565b6110c86040830184610f5a565b949350505050565b60006110da6110eb565b90506110e68282611298565b919050565b6000604051905090565b600067ffffffffffffffff8211156111105761110f6113b6565b5b602082029050602081019050919050565b600067ffffffffffffffff82111561113c5761113b6113b6565b5b61114582611403565b9050602081019050919050565b600081519050919050565b600082825260208201905092915050565b600081905092915050565b600061118482611216565b915061118f83611216565b9250828210156111a2576111a16112fa565b5b828203905092915050565b60006111b8826111f6565b9050919050565b60008115159050919050565b6000819050919050565b60008190506111e38261143d565b919050565b600061ffff82169050919050565b600073ffffffffffffffffffffffffffffffffffffffff82169050919050565b6000819050919050565b600063ffffffff82169050919050565b600067ffffffffffffffff82169050919050565b600061124f826111d5565b9050919050565b82818337600083830152505050565b60005b83811015611283578082015181840152602081019050611268565b83811115611292576000848401525b50505050565b6112a182611403565b810181811067ffffffffffffffff821117156112c0576112bf6113b6565b5b80604052505050565b60006112d482611216565b91506112df83611216565b9250826112ef576112ee611329565b5b828206905092915050565b7f4e487b7100000000000000000000000000000000000000000000000000000000600052601160045260246000fd5b7f4e487b7100000000000000000000000000000000000000000000000000000000600052601260045260246000fd5b7f4e487b7100000000000000000000000000000000000000000000000000000000600052602160045260246000fd5b7f4e487b7100000000000000000000000000000000000000000000000000000000600052603260045260246000fd5b7f4e487b7100000000000000000000000000000000000000000000000000000000600052604160045260246000fd5b600080fd5b600080fd5b600080fd5b600080fd5b600080fd5b600080fd5b6000601f19601f8301169050919050565b7f3078000000000000000000000000000000000000000000000000000000000000600082015250565b6002811061144e5761144d611358565b5b50565b61145a81611216565b811461146557600080fd5b5056fea2646970667358221220ea9b8a146282dcb1efeeb3f4ccffe1e8205854cd1c678222415cae221740049764736f6c63430008070033",
  "linkReferences": {},
  "deployedLinkReferences": {}
}